{
  "contractName": "HelloWorld",
  "abi": [
    {
      "constant": true,
      "inputs": [],
      "name": "displayHelloWorld",
      "outputs": [
        {
          "name": "",
          "type": "string"
        }
      ],
      "payable": false,
      "stateMutability": "pure",
      "type": "function",
      "signature": "0xc05608e2"
    }
  ],
  "bytecode": "0x608060405234801561001057600080fd5b5061012a806100206000396000f3fe608060405260043610603e5763ffffffff7c0100000000000000000000000000000000000000000000000000000000600035041663c05608e281146043575b600080fd5b348015604e57600080fd5b50605560c7565b6040805160208082528351818301528351919283929083019185019080838360005b83811015608d5781810151838201526020016077565b50505050905090810190601f16801560b95780820380516001836020036101000a031916815260200191505b509250505060405180910390f35b60408051808201909152600a81527f48656c6c6f576f726c640000000000000000000000000000000000000000000060208201529056fea165627a7a723058201f617b1d836124960340c9bce688e777d76d30804a540b071cffac42f5979f7e0029",
  "source": "// SPDX-License-Identifier: MIT\r\npragma solidity >=0.4.22 <0.9.0;\r\n\r\ncontract HelloWorld {\r\n    function displayHelloWorld() public pure returns (string memory) {\r\n        return \"HelloWorld\";\r\n    }\r\n}\r\n",
  "sourcePath": "C:/Users/dpake/OneDrive/Desktop/Project/Block chain/Dapps 30/Day2 -  hello world/contracts/HelloWorld.sol",
  "compiler": {
    "name": "solc",
    "version": "0.5.0+commit.1d4f565a.Emscripten.clang"
  },
  "schemaVersion": "3.0.1",
  "updatedAt": "2022-06-06T04:28:18.747Z",
  "devdoc": {
    "methods": {}
  },
  "userdoc": {
    "methods": {}
  }
}